:1000000078200020250E0000750E0000BD0C0000B9
:10001000BD0C0000BD0C0000BD0C0000BD0C0000BC
:10002000BD0C0000BD0C0000BD0C0000B1080000BC
:10003000BD0C0000BD0C00006D080000BD0C0000F0
:10004000E90D0000D3800000E90D0000E90D00007B
:10005000E90D0000E90D0000E90D0000E90D0000C8
:10006000E90D0000E90D0000E90D0000E90D0000B8
:10007000E90D0000E90D0000E90D0000E90D0000A8
:10008000E90D0000E90D0000E90D0000E90D000098
:10009000E90D0000E90D0000E90D0000E90D000088
:1000A000E90D0000E90D0000E90D0000E90D000078
:1000B000E90D0000E90D0000E90D0000E90D000068
:1000C000E90D0000E90D0000E90D0000E90D000058
:1000D000E90D0000E90D0000E90D0000E90D000048
:1000E000E90D0000E90D0000E90D0000E90D000038
:1000F000E90D0000E90D000000000000D915000026
:1001000000000000350C000000000000350C00006D
:1001100000000000350C000000000000350C00005D
:1001200000000000350C0000B030002089180000ED
:1001300000000000350C000000000000350C00003D
:1001400000000000350C000000000000350C00002D
:10015000000000009980000000000000350C000045
:1001600098300020491C000000000000350C000001
:1001700000000000350C000000000000350C0000FD
:10018000000000008D1D000000000000350C000084
:1001900000000000350C000000000000350C0000DD
:1001A00000000000350C000000000000350C0000CD
:1001B00000000000350C000000000000CD800000B1
:1001C00000000000350C000000000000350C0000AD
:1001D00000000000350C000000000000350C00009D
:1001E00000000000350C000000000000350C00008D
:1001F00000000000350C000000000000350C00007D
:1002000000000000350C000000000000350C00006C
:1002100000000000350C000000000000350C00005C
:1002200000000000350C000000000000350C00004C
:1002300000000000350C000000000000350C00003C
:1002400000000000350C000000000000350C00002C
:1002500000000000350C000000000000350C00001C
:1002600000000000350C000053B94AB9002908BF4E
:1002700000281CBF4FF0FF314FF0FF3000F086B96F
:10028000ADF1080C6DE904CE00F01AF8DDF804E0D9
:10029000DDE9022304B07047430803F05533C01A68
:1002A000830803F0333300F03330184400EB1010B0
:1002B00000F00F3000EB002000EB0040000E704714
:1002C0002DE9F047089E04468846002B4BD18A4210
:1002D000154667D9B2FA82F24AB1C2F1200701FA93
:1002E00002F320FA07F7954047EA030894404FEAE3
:1002F000154E230CB8FBFEF71FFA85FC0EFB178882
:1003000043EA084307FB0CF1994209D9EB1807F1BE
:10031000FF3080F01B81994240F21881023F2B444C
:100320005B1AA4B2B3FBFEF00EFB103344EA0344A5
:1003300000FB0CFCA44509D92C1900F1FF3380F017
:100340000781A44540F2048102382C4440EA07406A
:10035000A4EB0C0400271EB1D4400023C6E90043DF
:100360003946BDE8F0878B4209D9002E00F0EB80BA
:100370000027C6E9000138463946BDE8F087B3FAE0
:1003800083F7002F47D18B4202D3824200F2FA80DA
:10039000841A61EB030301209846002EE0D0C6E9E1
:1003A0000048DDE702B9FFDEB2FA82F2002A40F02F
:1003B0008F80491B4FEA154E1FFA85F80127B1FBC4
:1003C000FEFC230C0EFB1C1143EA014308FB0CF15D
:1003D000994207D9EB180CF1FF3002D2994200F292
:1003E000CD808446591AA3B2B1FBFEF00EFB101467
:1003F00043EA044408FB00F8A04507D92C1900F192
:10040000FF3302D2A04500F2B6801846A4EB0804E0
:1004100040EA0C409FE7C7F1200CBB4022FA0CFEDB
:100420004EEA030E01FA07F420FA0CF521FA0CF358
:100430004FEA1E482543B3FBF8F92C0C08FB19338F
:100440001FFA8EFA44EA034309FB0AF49C4202FABB
:1004500007F200FA07F10BD91EEB030309F1FF3095
:1004600080F087809C4240F28480A9F102097344A5
:100470001B1BADB2B3FBF8F008FB103345EA034495
:1004800000FB0AFAA24508D91EEB040400F1FF3371
:100490006BD2A24569D90238744440EA0940A0FBF6
:1004A0000289A4EB0A044C45C2464B4654D351D0B2
:1004B000002E69D0B1EB0A0564EB030404FA0CFCCE
:1004C000FD40FC404CEA0505C6E90054002747E71B
:1004D000C2F1200320FA03F7954001FA02F021FA55
:1004E00003F34FEA154E3843010CB3FBFEF71FFA36
:1004F00085F80EFB173341EA034107FB08F38B42F3
:1005000004FA02F407D9691807F1FF3C2FD28B4295
:100510002DD9023F2944CB1A81B2B3FBFEF00EFB6A
:10052000103341EA034100FB08F38B4207D96918F5
:1005300000F1FF3C17D28B4215D902382944C91A61
:1005400040EA07473BE73746304609E70746E7E614
:100550001846FBE64145ABD2B8EB020A69EB0E0246
:1005600001381346A4E76046E9E7184695E7674671
:10057000D1E781467CE702382C4447E7ACF1020C16
:100580002B442FE7384608E73746E9E6704700BFB7
:100590000139034611F8012F0AB91A70704703F8A0
:1005A000012BF7E70138013910F8013F11F8012F4D
:1005B000934202D1002BF7D11A46981A704710B512
:1005C0005AB10139841810F8012B11F8013FA042EB
:1005D00001D09A42F7D0D01A10BD1046FCE7F0B512
:1005E00081EA0004A50703460BD0013B0A4491426F
:1005F0001DD1F0BD002AFCD011F8014B03F8014BCE
:10060000013A9C07F6D11D1F0C468F183E1B032E86
:1006100008D894086FF0030505FB0422A4002344C6
:100620002144E2E754F8046B45F8046FEEE711F853
:10063000014B03F8014FDAE7F0B5C9B203469C0756
:100640000FD141EA012444EA04441D469F187E1B51
:10065000032E0CD8940803EB840413449C4209D164
:10066000F0BD002AFCD003F8011B013AE7E745F88A
:10067000044BECE704F8011BF0E74FF0FF30704744
:10068000014B1860704700BFB82D00200149024897
:1006900000F0E0BD2DA5000031A50000054B1B6852
:1006A000082B01BF044B1868B0FA80F0400918BF4E
:1006B00000207047300100103401001008B54FF0E1
:1006C0002003EFF3118183F31188FFF7E7FF40B1B7
:1006D0004FF080430022C3F80C21C3F81021C3F867
:1006E0003825FFF7DBFF10B1384B394A1A60FFF7A6
:1006F000D5FF18B1374BFB22C3F81825FFF7CEFF03
:1007000048B13548354B02681B6822F00F0203F0F0
:100710000F0313430360FFF7C1FF18B1304B4FF4D1
:1007200000721A60FFF7BAFF48B14FF08043D3F868
:100730000024D20744BF6FF00102C3F800244FF039
:100740001023D3F80022002A03DBD3F80432002B55
:100750002FDA244B0122C3F80425D3F80024002A01
:10076000FBD04FF010221221C2F80012D3F800245F
:10077000002AFBD04FF010231222C3F80422194B99
:100780001A46D3F800140029FBD00021C3F8041541
:10079000D2F80034002BFBD0BFF34F8F1249134B1C
:1007A000CA6802F4E0621343CB60BFF34F8F00BF0F
:1007B000FDE70D4B4FF0FF329A62DA620C4B0D4AA7
:1007C0001A6081F31188002008BD00BF8C560040DC
:1007D0004881030000F00040E40E00405802001081
:1007E0004096024000E0014000ED00E00400FA0500
:1007F000002E00200090D003084881684A897F2A93
:100800000BD8C069884208D000B509F09FF95DF89F
:1008100004EB03494FF080520A60704788110020B2
:1008200004ED00E0044800232021C21801332E2BE0
:1008300082F80013F9D1704700E100E0084A094945
:10084000936809685966084918664B6843F08053F5
:100850004B60002383F311889368586E704700BF84
:100860008811002060AB000000ED00E00E498A68AE
:100870004FF028001044EFF3098C80E8F01F0B4F75
:100880004FF00066202080F31188CA698A603E60BC
:10089000106E0023136680F3118802F1280090E89F
:1008A000F01F8CF3098870478811002004ED00E0E8
:1008B0001EF0040F0CBFEFF30880EFF3098081698D
:1008C00031F8021C11F0FF0101D0022907D040408D
:1008D00080F3118804494FF080520A60704700B5D8
:1008E00000F02CFA00BD000004ED00E010B5044655
:1008F00009F002F922680146BDE81040014800F005
:10090000A9BC00BFA7A6000010B504461A4800F015
:10091000A1FC04F11800194CFFF7E8FFA36A9A0143
:1009200002D5174800F096FCA36ADB0102D51548F2
:1009300000F090FCA36A180302D5134800F08AFC6B
:100940000E4CA36A590302D5104800F083FCA36A39
:100950009A0302D50E4800F07DFCA36ADB0302D5A2
:100960000C4800F077FC054A936A6FEA03436FEA8C
:100970001343936210BD00BFA8A7000000ED00E084
:10098000C1A70000D5A70000F0A700000FA8000035
:1009900035A8000050A8000038B5044619480D4697
:1009A00000F058FC04F11800174CFFF79FFFA36AF2
:1009B000D90604D51548BDE8384000F04BBCA36A01
:1009C0001A0701D51248F6E7A36A9B070FD511480D
:1009D00000F040FC616BA36A180607D50E4800F0D2
:1009E00039FC1DB1A36A23F08003A36238BDA36A5A
:1009F000DA0701D50948DEE7A36A9B06F6D5084861
:100A0000D9E700BFF1A6000000ED00E008A7000054
:100A10001AA700002EA7000047A7000058A7000053
:100A200078A7000038B504461D480D4600F012FCBA
:100A300004F118001B4CFFF759FFA36AD80404D532
:100A40001948BDE8384000F005BCA36A190501D576
:100A50001648F6E7A36A9A0514D5154800F0FAFB84
:100A6000A16BA36A1B0407D5124800F0F3FB1DB16C
:100A7000A36A23F40043A3620A4B9B6A58050ED570
:100A80000D48DEE7A36A5905FAD4A36ADA0501D551
:100A90000A48D6E7A36A9B0401D50948D1E738BDC7
:100AA0006EA5000000ED00E008A700001AA70000F6
:100AB00085A5000047A700009FA50000BBA500007A
:100AC00078A7000038B5274D6B68C3F30803DA1E1A
:100AD0000446092A3AD8DFE802F00533352F3939C0
:100AE00039393937204800F0B5FBEB6A9A0703D54E
:100AF0001E4800F0AFFB0CE0EB6A5B0009D51C4818
:100B000000F0A8FB1B4B1B784BB101212046FFF7DF
:100B100043FF21460020BDE8384000F013B9164BD2
:100B20001B7823B101212046FFF77CFFF1E7134B2F
:100B30001B889BB2002BECD02046FFF7E5FEE8E7D0
:100B40000021E3E70021EEE70D48D2E70D480E490A
:100B5000A3F110020F2BD8BF01460C4800F07AFB1E
:100B6000D7E700BF00ED00E002A600001AA60000D3
:100B70003CA6000028ED00E029ED00E02AED00E0B1
:100B80005CA60000D4A50000E9A5000093A6000023
:100B9000024A536943F010035361704700ED00E0CF
:100BA00043B2002B08DB012200F01F0002FA00F024
:100BB0005B09024A42F82300704700BF00E100E0F1
:100BC00043B2002B0DDB01225B0900F01F0002FA8B
:100BD00000F02033034A42F82300BFF34F8FBFF3E6
:100BE0006F8F704700E100E04209054B00F01F00E5
:100BF00053F82220012303FA00F01040704700BF91
:100C000000E100E043B2002BA8BF03F1604301F113
:100C100001014FEA4111AEBF03F5614300F00F003F
:100C2000034BC9B2ACBF83F800131954704700BF1F
:100C300014ED00E000F042B808B572B6044B9869B4
:100C400018B100229A6108F0DDFB62B608BD00BF52
:100C500088110020F8B50C4616461F4604220A9B50
:100C60000999054609F046FAA6F1200121440C4AEB
:100C700021F00701002322F00102C5E91333C5E981
:100C800016468A61069A4A60079A8A60089ACA607C
:100C90004FF080720F60CA61A9642B66F8BD00BF77
:100CA0006D9F0000014910220A60704710ED00E0BE
:100CB000404080F3118830BF704700BF404080F350
:100CC0001188DFF81CC0DCF800C01CF4006C0CBFFD
:100CD000EFF30880EFF3098000B5FFF7F3FE00BDE6
:100CE00004ED00E0042838B504460D4613D005286D
:100CF00013D0032813D10C4800F0ACFA08F0FCFE26
:100D0000AA690146094800F0A5FA29462046BDE82F
:100D1000384000F017B80648EEE70648ECE7014611
:100D2000054800F097FAE9E77CA80000FAA800005F
:100D3000A2A80000BCA80000D7A8000001460068D7
:100D4000FFF7D0BF052810B50CD009F0F7F860B157
:100D500009F0F4F80C490D4B002808BF19460C485F
:100D600000F078FAFFF7A4FFFCE709F0F7F8002895
:100D7000EED1084C0848A16800F06CFAA068BDE804
:100D8000104000F00BB800BF36A900003AA90000DF
:100D90004BA90000881100206BA9000038B505465A
:100DA0004FF02003EFF3118483F3118809F032F937
:100DB0000B4B9B68AB420DD10A4B5A68C2F3080239
:100DC00022B908F0C3FE2046FFF738FD5A6842F00A
:100DD00080525A602046BDE8384008F01BBE00BF74
:100DE0008811002000ED00E000B572B60B4A906952
:100DF00000281EBF0021916108F004FB62B6EFF3EA
:100E00000580A0F110004FEAC0000549014409C95E
:100E100098475DF804EBFFF7EFBC00008811002055
:100E2000F8000000202080F3118805484FF400618D
:100E3000401880F30988022080F3148800F006B877
:100E4000B821002030BFFFF7FDBF00BF08B5074B3A
:100E5000074A23F07F039360BFF34F8FBFF36F8F79
:100E600008F000FB08F008FB08F02EFB0000000073
:100E700000ED00E008B5FFF7E5FFBDE80840FFF72B
:100E8000BBBC0000154B16491A6830B50D68C2F39B
:100E9000072295420FD8002248685A60954200F117
:100EA0000C000AD105225A600E4B01221A70BFF3C2
:100EB0004F8FBFF36F8F002030BD50F80C1C50F8DF
:100EC000044C9A6021F01F0141F01001114344F0DD
:100ED0000104D96001321C61E0E700BF90ED00E041
:100EE000BC2D002000000020002070470B6801335B
:100EF0000B60014B1B681847042E00202DE9F04FB2
:100F000085B09B460E9CDFF890A0012CB8BF012451
:100F1000012B0CBF302320231546804689460194BF
:100F2000029301260A2700220AF101040AB9AA4500
:100F30001FD2B5FBF4F049463030C04701360122DC
:100F4000013F012FB5FBF4F14FF00A0304FB1155EB
:100F5000BAFBF3FAE8D1494605F13000C047BBF1CE
:100F6000030F03D1019B9C1B002C0FDC05B0BDE8D7
:100F7000F08F019BBB42E3DBBBF1020FE0D8494697
:100F8000029803920136C047039AD9E749462020C8
:100F9000C047013CE8E700BFFFC99A3B30B58A680B
:100FA0000C68551C14B14B68934201DC8D6030BD58
:100FB000013B934208BF00228D600CBFE254A05455
:100FC000F5E70000014B1860704700BF042E0020B9
:100FD0002DE9F04F89B01C464FF0000A531E06461B
:100FE0000F4604934FF0FF39D046002505E06DB958
:100FF000252800F012813946B047049B13F8010FF1
:1010000004930028F3D109B0BDE8F08F642861D0C3
:1010100019D839280AD8312850D22D283CD0302868
:101020003DD0252808D13946B047DEE7582800F0E2
:101030008880632800F0EB8039462520B047049B68
:1010400039461878F0E7702871D006D8692841D061
:101050006C283CD06828D0D0EEE7752857D017D838
:101060007328E9D1236804F1040B1C46254615F8C2
:10107000010B002840F0C080B8F1030F40F0D6808B
:10108000E41AA9EB0404002C00F3BC805C46ACE736
:10109000782856D07A28DEE74FF00308ADE7B9F19B
:1010A000000F0EDAB8F1000F00F0BD80A0F130099A
:1010B000B8F1000F08BF4FF002089EE7B9F1000F2A
:1010C000F4DB0A2303FB0909A9F13009F0E70AF16F
:1010D000010A92E7BAF1010FC5BF073424F00703F4
:1010E00025681D68D4BF043403F10804002D05DA17
:1010F00039462D20B0476D4209F1FF39CDF80090F7
:1011000043462A4639463046FFF7F8FE6DE7BAF106
:10111000010FC5BF073424F0070322681A68CDF811
:101120000090CCBF03F1080404344346EAE7394693
:101130003020B04739467820B0474FF008094FF0CB
:101140000108BAF1010FC7BF073424F00703236871
:101150000593C2BF03F108041B6805934FF0080212
:101160004FF00003D8BF04340393079393460BF169
:10117000FF3B059B4FEA8B0023FA00F010F00F00B5
:1011800009D1079B13B9BBF1000F24D14FF0300CEC
:1011900007E0069AEBE709288CBF4FF0570C4FF099
:1011A000300C394660440692B047039B07950133E3
:1011B0000393BBF1000FECD1B8F1030F7FF415AF2F
:1011C000039BC3EB4905002D7FF70FAF3946202065
:1011D000B047013DF7E7531E91450693E9DBB8F1AF
:1011E000010F03D139463020B047E2E7B8F1020FD2
:1011F000DFD139462020F7E7394603932C46B04724
:10120000039B33E739462020B047013C3BE7206889
:10121000251D3946B0472C46E7E6AA46A8464FF0BA
:10122000FF390125E9E64FF00108E6E65C46054690
:10123000E3E6000013B502AC002344F8043D024687
:101240000B4603482146FFF7C3FE019802B010BDCC
:10125000ED0E00000FB407B504A951F8040B01917D
:10126000FFF7E8FF03B05DF804EB04B0704700003F
:101270000CB430B585B008ABCDE9010153F8042BAF
:1012800000930446002501A906480395FFF7A0FE38
:10129000DDE902309842B8BF255405B0BDE83040C2
:1012A00002B070479D0F000070470369C1688B4210
:1012B0009DBF8268D21802F1FF3203F1FF3394BF61
:1012C000501A581A70472DE9F041D0E902670446D8
:1012D000F61B4068964288461546384405D9FFF704
:1012E0007EF93D44E560BDE8F0813246AD1BFFF775
:1012F00076F92A4608EB06016068FFF770F9F1E716
:101300002DE9F843C5680646894617464FF00008A0
:101310003469B3687068A54228BFE418013C621BB9
:101320005C1BBC4228BF3C46944228BF1446494639
:1013300028442246FFF753F9B3682544AB4208BF5F
:1013400000253F1BA044A144F560E1D14046BDE823
:10135000F883000010B5114C114AA2610323C4E9BF
:101360000433104BE36122664FF480630E4A23621C
:101370006266002310220D49A362E01D6362E362EE
:101380002367E3666367A266FFF702F90849204610
:10139000FFF7FEF82023A37110BD00BFB412002098
:1013A00090A90000110000200100002099A9000070
:1013B0009DA90000F8B5184C182300FB033503FB6A
:1013C00000402544C46A012C0F46164611D003D3B1
:1013D000022C1BD000240AE02846FFF766FF864255
:1013E00005D8324639462846FFF76DFF3446204679
:1013F000F8BD2846FFF759FF8642344628BF044609
:10140000224639462846FFF75EFFF0E72846BDE84A
:10141000F840FFF775BF00BFB4120020FFF79ABF76
:1014200013B5114CBFF35B8F2068BFF35B8F60B9BE
:101430000E4807F0C1FFBFF35B8F54E8003F44E85C
:101440000002002AF9D1BFF35B8F436804221B68B6
:101450000DEB02019847002802DA00F005FD01902B
:10146000019802B010BD00BF14040020A4A9000020
:1014700010B5054CFFF7D2FF2046FFF7A3FD20462D
:10148000FFF7FEF8002010BD8D14000037B502A94B
:10149000044601F8010D4FF02003EFF3118583F3AB
:1014A000118801220020FFF785FF85F3118820466F
:1014B00003B030BD10B54FF02003EFF3118283F37A
:1014C0001188114C237823B982F311886FF04400FE
:1014D00010BD013BDBB2237023B182F311886FF0A2
:1014E0000F00F5E7094B1878012128B1217082F32C
:1014F00011886FF00A00EBE7197082F311884FF042
:10150000804251601870E3E71A040020190400209B
:1015100008B5002210460121FFF774FB0020FFF7F9
:101520003FFB002008BD0000F8B54FF02002EFF3AC
:10153000118382F31188254A1078441C147060B11D
:1015400083F311884FF08043D3F80C3413F4803FB9
:1015500014BF00206FF0430007E01D4D2F782FB11E
:10156000107083F311886FF00A00F8BD01262E7009
:1015700083F311884FF0804419B33846FFF720FBFE
:10158000C4F80071D4F80433C4F804632660D4F8B6
:10159000002192B10022C4F800210E4A13F0010F7D
:1015A0004FF0010308BFC4F808330020C2F88031AF
:1015B000FFF7F6FA00232B70C4E720BF40BF20BF1F
:1015C000E5E7C4F800112660F4E700BF1A04002024
:1015D0001904002000E100E0F8B54FF08043054613
:1015E000D3F808C1D3F80423D3F80C44D3F800711E
:1015F000D3F80401D3F80C11D3F8106102F0010202
:10160000BCF1000F03D04FF0000CC3F808C127B1A4
:101610004FF080430027C3F800713AB1E30341BFA4
:101620004FF080430122C3F808231A6120B14FF024
:1016300080430022C3F8042149B14FF080440021C7
:10164000C4F80C112846FFF735FF0123636176B11A
:101650004FF0804300210124C3F810112846C3F83D
:101660000443FFF761FF10B9014BC3F80041F8BD17
:1016700000E100E0F8B506460C464FF02002EFF31B
:10168000118382F311882C4A157865B183F3118890
:101690004FF08043D3F8183413F4803F0CBF6FF041
:1016A00043000020F8BD0127177083F311882846F6
:1016B000FFF786FA4FF080430221C3F80451D3F8B4
:1016C0000423C3F80413C3F818459F60D3F804112A
:1016D00071B39207194F58BF02224FF000014FF02B
:1016E0000105C3F804114FF0000058BFC3F80823E8
:1016F000C7F88051FFF754FA4FF0804300211822B9
:10170000C3F80823C3F80C11C3F8101114F0030137
:10171000BED11020C3F83805C3F804233046C3F8FF
:101720000453FFF701FF0028B2D1C7F80051AFE71B
:1017300020BF40BF20BFC9E71804002000E100E03F
:1017400003689B6810B59C688368DA68002022FAF9
:1017500000F3DB0707D500F5A27354F82330C3F379
:1017600004238B4204D001300828F0D16FF012001E
:1017700010BD00688068006841B9D0F8101521FAE2
:1017800002F202F001021A6000207047D0F8102522
:10179000F9E700688068006851B9012101FA02F296
:1017A0001BB1C0F8082500207047C0F80C25FAE7E7
:1017B000C0F80435F7E7836810B518686AB15A684D
:1017C0000860196002B95960002010BDA142106084
:1017D00008BF5A600DE0024600680028F4D0884235
:1017E000F9D108685C68002AF0D1A142186000D1E4
:1017F000586000230B60E7E7F8B514460268876875
:1018000092680D469668A1B92146FFF799FF002816
:101810000EDBBA68012303FA04F4144300F140021A
:1018200003FA00F0BC6046F82250C6F804032846CC
:10183000F8BD6FF02200FBE7F8B514460268866831
:1018400092680D46976889B92146FFF779FF00280D
:101850000BDBB268012303FA04F403FA00F022EA76
:101860000404B460C7F808032846F8BD6FF02200EE
:10187000FBE708B5002201210620FFF7C3F9062087
:10188000FFF78EF9002008BDF8B5036806469B688F
:10189000B468986800231F461D464FF0010C00EB0A
:1018A0008302D2F8001141B1C2F80051D2F81015EC
:1018B000C1F304210CFA01F10F430133082BEED1DF
:1018C0000620A568FFF77CF924685CB13D40A36859
:1018D0001D4204D063682A46214630469847246852
:1018E000002CF4D10620BDE8F840FFF759B90000FC
:1018F0002DE9F041144602688768926806469568AB
:10190000106819B16FF02200BDE8F08103F4407156
:10191000B1F5807FC3F3013EC3F3813203F4403C51
:1019200055D0B1F5007F0CBF04210021BCF5803FEC
:1019300002EB8E02DFF8C0E008BF4FF0000C13F09E
:10194000010F5EF8222004F5E07E4BD00C2940D137
:101950004FF0010C0CFA04FCC0F808C542F0030279
:101960000A4340F82E2013F00200CDD09906C9D5C5
:101970005A063BD413F0040F0CBF4FF400384FF459
:101980008038F868FEF788FC082832D021463046B7
:10199000FFF7D6FE0028FB6808DADA4392FAA2F0D5
:1019A000002AB0FA80F008BF4FF0FF302402012275
:1019B00004F4F854824044F0010400F5A27013438B
:1019C00044EA0804FB6045F8204000209CE70C2115
:1019D000ACE7042902BF4FF0010C0CFA04FCC0F87C
:1019E0000CC5BBE70A4342EA0C02BAE74FF44038A1
:1019F000C7E76FF0040087E7E0A9000003689B6871
:101A00001B68D3F8082132B10020C3F80801D3F8CD
:101A100018350B7070474FF0FF30704703689B68B4
:101A20001B68C3F81C15D3F81C21002AFBD0002228
:101A3000C3F81C210846704703689B681B68D3F8ED
:101A4000240118B1D3F88004C3F8800400F00F001B
:101A500070470000F8B503689B68054618481C6885
:101A600007F0AAFC436806461F68062240F20113ED
:101A70000021B84773681F680023194608223046C2
:101A8000B8470623C4F80C350823C4F81435AB68EE
:101A90004FF4E1321A602B689B681B684FF0EB72C1
:101AA000C3F824250423C4F8003500200123C4F81A
:101AB0001C01C4F80801A3602360024B6B60F8BDF1
:101AC00048AA000060AA00002DE9F0418378C4789C
:101AD0001E1DA3420A4406441FD8E41AE4B2A142E0
:101AE0003EBF641AE7B20C462344A1EB040128BFB1
:101AF0000027DBB2C9B23444A64209D183704378CF
:101B0000BB4282BF204B01221A600846BDE8F0812B
:101B100016F8015B02F8015DEEE70578ED1AEDB20B
:101B2000A9423FBF671AED19EFB20D4638BF5B18E7
:101B3000A1EB050132BFDBB227460023C9B29446B0
:101B400006EB050E764519D1521B0029D6D0002C84
:101B5000D4D08C428ABF0B462346641A00F1040697
:101B6000A1EB03018CBFE7B20027C9B2F418A6426B
:101B7000C4D016F8015B02F8015DF8E716F8018B96
:101B80000CF8018DDEE700BF00D0004030B5D0B1C9
:101B9000C27805788478531CDBB29D4208BF0023CD
:101BA0009C4210D061B10A490244D1F80815117164
:101BB000C3700133DBB29D4208BF00239C4205D0B5
:101BC0006FF00F0030BD6FF03600FBE70020F9E743
:101BD00000D0004070B5846801221146204607F00D
:101BE000D5FF04F118000122002107F0CFFF0423E4
:101BF00084F831300C23002584F83D300521114B49
:101C000084F830100D2684F8335084F8325084F86C
:101C10003C6084F83F5084F83E50D3F8042542F0ED
:101C20000102C3F804250122C3F800513046C3F86D
:101C300004231A602A46FEF7E5FF3046FEF7B0FFA0
:101C4000284670BD00D0004070B5134CD4F8003168
:101C50005BB18568012105F13C00FFF797FF10F1AA
:101C6000100F03D10023C4F8003170BD373014BF0A
:101C70000021012105F13000FFF788FF064605F13C
:101C8000180007F08DFF00231036C4F800311CBF88
:101C900001236360E9E700BF00D000402DE9F8436D
:101CA00085680F46144605F1180814B92046BDE8AA
:101CB000F883FF2C234628BFFF23E41ADEB2A4B228
:101CC00005F130094FF0FF31284607F0CDFF3146CE
:101CD0003A464846FFF7F8FE0646284607F060FFFA
:101CE000002EE2D04FF0FF31404607F0BDFFE9E79C
:101CF000134602480A461946FFF7E6BE680400206C
:101D0000084BC3F84005D3F80435C01A20F07F40D3
:101D1000054B0238984282BF044B4FF40032C3F89F
:101D20000021704700100140FDFF7F0000E100E04E
:101D300010B5124B124CD3F804052268801A20F01B
:101D40007F40B0F5A37F11D90E49096840F24713CF
:101D5000B0FBF3F0884228BF084603FB002323F0C2
:101D60007F432360084B186007F0A6FF2068BDE89A
:101D7000104000F24710FFF7C3BF00BF0010014042
:101D8000800400207C0400203C300020024B002214
:101D9000C3F84021FFF7CCBF0010014046F23543A5
:101DA000984228BF1846054B1860054B1B6840F247
:101DB000471202FB0030FFF7A3BF00BF7C040020E6
:101DC0008004002008B5074B0022C3F84021064BD1
:101DD0004FF40032C3F88021FFF7AAFF034B012222
:101DE0001A6008BD0010014000E100E07C04002002
:101DF00070B5184807F0E0FA48B34368164D1B6801
:101E000001219847154B00241C60154B01261E60CC
:101E100040F24713C5F80845C5F840354FF4803304
:101E2000C5F84433C5F804330E4BC5F840414FF4B0
:101E30000032C3F88021314622461120FEF7E2FE2F
:101E40001120FEF7ADFEAE6020462E6070BD4FF053
:101E5000FF30FBE7C8A9000000100140800400200B
:101E60007C04002000E100E030B50B4A0B48D2F8BA
:101E70000415D0E90045D2F8043599420AD1084A40
:101E800040F2471303FB1413106823F07F4300FB59
:101E9000043030BD1946ECE700100140401400202A
:101EA00040300020BFF35B8F50E8003F43EA01025F
:101EB00040E8002CBCF1000FF6D1BFF35B8F184651
:101EC0007047BFF35B8F50E8003F03EA010240E830
:101ED000002CBCF1000FF6D1BFF35B8F18467047A2
:101EE00070B5064688790D4607F050F90E4B8342CF
:101EF00019D1284607F050F9284607F04DF90B4C48
:101F000004EBC000436873B1284607F045F904F8B4
:101F10003060284607F040F904EBC000BDE870408F
:101F2000406807F03DBE70BDFC30002084040020F6
:101F3000054BBFF35B8F1B6FBFF35B8F43FA00F062
:101F400000F00100704700BF102E00202DE9F0477F
:101F5000804689461348144D4FF0FF3107F0AAF927
:101F6000044600F1080600213046002707F0A8F9D2
:101F70002775204607F010F905EBC000A0F8028095
:101F8000204607F009F905EBC00003214760304601
:101F900007F0DAF980F80290A0F800802046BDE84A
:101FA000F08700BFFC3000208404002070B5154687
:101FB00086B00C4619B9FFF7C9FF044668B3012281
:101FC0000021684607F0E2FD204607F0E5F8144ED0
:101FD00006EBC000C0F804D0204607F0B1F9214656
:101FE000104807F071F942F21071684607F03CFEA4
:101FF000204607F0D1F816F8300030B1204607F03F
:1020000071F96FF0040006B070BD0DB12C60FAE7F5
:10201000204607F067F92846F5E76FF03600F2E74B
:1020200084040020C42E002070B5154D062205F151
:1020300008010646FEF7C3FA0446D8B1062142F26B
:102040000500FFF783FF0446B0B106223146083091
:1020500007F080F92146002242F20500FFF7A6FFB3
:10206000044638B90622314605F10800FEF7B7FAF2
:102070000123EB71204670BD6FF03604FAE700BF14
:10208000102E002038B50221054642F20C00FFF761
:102090005DFF044620B30221083007F055F9012DF9
:1020A000024614D10A20FFF743FF507015702146F5
:1020B000002242F20C00FFF779FF044628B9012DF7
:1020C00008D180210848FFF7EDFE204638BD0023E7
:1020D0004370EBE76FF080010348FFF7F2FEF4E78F
:1020E0006FF03604F1E700BF802E002008B508200D
:1020F000FFF71EFF024640B90720FFF719FF20B186
:102100001046BDE80840FFF7BDBF002008BD012311
:1021100010B50621044600F8013B01F037FB18B961
:10212000A37963F03F03A37110BD0000F0B587B041
:1021300004AA002140F60340FFF738FF04460028B8
:1021400075D1049B9B681B786BB9B54A1360B54B7E
:10215000BFF35B8F012253E8001F43E800200028F3
:10216000F9D1BFF35B8F049807F0BCF804AA0021F3
:1021700041F20300FFF71AFF0446002857D1049BE1
:10218000A94D99680822013105F11600FEF727FADA
:10219000049807F0A7F8214604AA41F20100FFF7CE
:1021A00005FF2E460446002841D1049883685A78DA
:1021B000AA73D9789A7842EA01222A821A79EA73B4
:1021C000197ADA7942EA01226A825A799B7942EADB
:1021D0000323AB8207F086F8214604AA41F20900E6
:1021E000FFF7E4FE044610BB049B99680622013108
:1021F000681CFEF7F4F904982C7007F073F8214678
:1022000004AA41F20200FFF7D1FE044678B9049B0C
:1022100099684022013105F11E00FEF7E0F90498AB
:1022200007F060F8AB7E580604D46FF01204204625
:1022300007B0F0BD214604AA42F20300FFF7B6FE44
:1022400004460028F3D1049B99680822013105F166
:102250007800FEF7C4F9049807F044F8AB7E9906BD
:1022600040F19C8096F83A301A0700F1B3800821BB
:1022700042F20100FFF76AFE0446002800F0958054
:102280000821084407F060F896F8403003F0060390
:10229000062B14BF02234FF4C173002203701B0AE4
:1022A00043708270C270027142718271C2712146A4
:1022B00042F20100FFF77AFE04460028B7D1082158
:1022C00040F60140FFF742FE054600286DD0082188
:1022D000084407F039F88023437002272023047054
:1022E0008470047144718471C770C3712246294699
:1022F00040F60140FFF75AFE0446002897D10146F8
:1023000004AA4FF60140FFF751FE20BB049806F0E7
:10231000E9FF04AA21464FF60240FFF747FED0B975
:10232000049B424899683A460131FEF758F90498EF
:1023300006F0D8FF04AA21464FF60340FFF736FE09
:1023400048B9049B3A48996801221144FEF747F9BD
:10235000049806F0C7FF0023072202A9324802931F
:10236000CDF80B30FEF72BF9002847D1314D2B6803
:10237000002B63D196F86030DB077BD42A48FFF747
:10238000C6FE044600287FF452AF2B68002B5DD0B8
:102390005D68254A07230146A84757E0022140F619
:1023A0006D40FFF7D3FD054610B96FF036043EE7E8
:1023B0000221083006F0C8FF012344700370224652
:1023C000294640F66D40FFF7F1FD044600283FF432
:1023D00049AF2CE704AA002142F21C00FFF7E6FDFA
:1023E000044600287FF423AF0498836853F8012F34
:1023F0005B68C6E9202306F075FF38E70E4B1868C6
:102400009A8804909B79ADF8142004A90722064805
:102410008DF81630FEF7D3F80028A7D007E700BFE5
:10242000E0040020802E0020102E00206F2E0020BF
:102430006E2E00205C1300200CA5000000211C68FB
:102440001B4A07230846A047072893D13378012B5E
:102450002BD1B37903F0C003C02B26D11548FFF769
:10246000E3FD044600287FF4E2AE04211248FFF7A2
:1024700019FDDCE601AA00214FF60940FFF796FDA1
:1024800000287FF47BAF019881684B7853B101231A
:102490000622023107483370FEF7A1F8019806F0D2
:1024A00021FFD3E706F01EFF68E76FF01504BEE6D4
:1024B000102E0020112E0020802E002010B5FFF7D6
:1024C00035FE044630B902210648FFF7EBFC2046F2
:1024D000FFF70CFE044B1B681BB12046BDE8104003
:1024E000184710BD802E0020DC0400202DE9F04F9D
:1024F000067D012E85B0044640F0988087683B78C1
:102500000E3B012B05D8404080F311884FF00400AA
:1025100002DF00F1080318460221019306F023FFB1
:102520003B783E2B61D1A7680198314606F01BFF2E
:102530003F78082F44D0092F67D0022F55D101983A
:102540003D4F06F018FF804608F1FF385FFA88F823
:10255000B8F1FF0F49D0A6680198092106F003FFE2
:10256000337A3344711C93F809B07378023B012B22
:102570004FF0070202A856D8FEF731F89DF8083050
:10258000023B8DF808303B68A3B1019806F0FBFED2
:10259000337AB4F80CA0A3818146019B32783D6860
:1025A0004FFA8BF102A8A8472369A4F80CA013FAEC
:1025B00089F3A360317A0198013106F0D4FEC3E7B4
:1025C000A6681E486FF01001FFF77BFC337843B913
:1025D000711C40221A48FEF702F839461748FFF7E7
:1025E00061FC184B1D68771C35B9204606F07AFE51
:1025F000002005B0BDE8F08F32782B68002A0CBFB0
:102600003846002098476D68EEE70F4D2A68002A8B
:10261000EBD0A068037823B90130904700232B60EA
:10262000E3E70020F9E7FDF7DAFFACE706F05AFE32
:102630006FF01500DDE700BFE0040020802E0020D1
:1026400098040020D804002094040020F8B5037DED
:102650008668012B044605D0404080F311884FF076
:10266000040002DF8389012BF6D933780E3B012B5E
:10267000F2D800F108050221284606F074FE3378EE
:102680000E2B05D00F2B17D0204606F02BFEE3E7CC
:10269000A368032128461E7806F065FEA36821463C
:1026A0001878FFF71DFC16B10A4807F079FA2046A2
:1026B00006F018FE0020F8BDA668042177782846A9
:1026C00006F051FE21463078FFF70AFC002FEED0CD
:1026D000EAE700BF982E0020084AD2F8C4303BB980
:1026E000816841B1C16831B1C2F8C4001846704771
:1026F0006FF0440070476FF015007047102E0020F7
:1027000038B50546054806F0D5FD044620B1002140
:10271000083006F0D5FD2575204638BD1C31002057
:1027200010B501464FF02003EFF3118083F31188B9
:102730000B4A0023D2F8A040C2F8A03080F31188E1
:1027400024B90120BDE81040FFF7DABF012204F1EF
:1027500008002275A381194606F0B2FD204610BD7F
:10276000102E0020F7B51860C31D23F003030E469A
:102770001A80013A94B205460422002106FB0400A7
:10278000FDF75AFF4FF6FF77013CA4B2BC4201D1DE
:1027900003B0F0BD04FB06602B180422801B0DEB78
:1027A000020128440193FDF71AFFEDE773B50468B1
:1027B00006468CB1E31D23F00303042221460DEBF2
:1027C00002001D88FDF70BFF019B23B1DA1D22F0EB
:1027D0000302013D15803360204602B070BD70B524
:1027E0000C6806460D461CB1E31D23F003031C884C
:1027F000042229463046FDF7F2FEF21D22F00302C4
:10280000631C13802E6070BD02FB01007047401AEC
:1028100080B2B0FBF2F0704710B5114401384FF6AA
:10282000FF73013A92B29A4200D110BD11F8014DE6
:1028300000F8014FF5E710600860704710B51468A4
:10284000206014686160106010BD884203D01AB126
:10285000436813607047002070470B68834207D0BD
:102860000AB1586810600BB11A680A6018467047C0
:102870000023FBE72DE9F047114FDFF848900426CD
:10288000013EF6B2FF2E19D033B24FEA830803EBB4
:1028900043031D0104244FF00C0A0AE01AFB045103
:1028A0000A1D04EB08003A44394409EBC000FFF765
:1028B000C2FF013CE4B2FF2CF0D1E1E7BDE8F087B4
:1028C00064050020E4040020F0B4124B05460F46D6
:1028D0000C26302472B1614306FB00142344597A5C
:1028E000187A814204BF0131197228463946F0BC7A
:1028F00006F0B8BB4C4306FB004423449C7ADA7ACA
:10290000A24204D101329A72F0BC06F0D9BBF0BCED
:10291000704700BF64050020F8B505460E461C460A
:102920008AB1012362782078801A10F0030729D039
:1029300003B3012F39D00132D2B22270314628467A
:1029400006F0BEFB1CE006F0A9FB0028E9D03146EA
:10295000284606F095FB0028E3D030230C22734371
:1029600002FB0533124A1A44937AD27A9B1A18BF93
:102970000123D7E70232D2B22270D4E9020398478A
:102980000020F8BD002BF8D00132D2B2227004230F
:10299000302212FB06320C2313FB0523044A606825
:1029A0001A442146FFF74AFFC8E73846E9E700BF67
:1029B000640500202DE9F04F00EB400389B01B01B6
:1029C0004FF00008434E049305460424CDF80480DC
:1029D000013CE4B2FF2C0BD1019B002B72D0B8F16B
:1029E000000F6FD142462946284606F03BFB69E0BE
:1029F0000DF1200B00230C274BF8043D4FF030095C
:102A000007FB04F309FB053031185A464968305872
:102A10000293FFF71AFF049B17FB0437F319824652
:102A20000393BAF1000F32D0079B1F785A78BF1A70
:102A300007F00307012F04D1013A5A70D3E90202CB
:102A40009047079A13785278DBB29A1A02F0030281
:102A5000012A05930DD0029B039909FB05303044F0
:102A600000224068FFF7F9FE079A059BC2F804A010
:102A70005370029B09FB0533F1185A464968F05818
:102A8000FFF7E3FE012F8246CBD1BCB9B0B93022AB
:102A90000C236A4303FB04223244917AD07A8842A1
:102AA00013D130226A4303FB042333441A7A597A40
:102AB00091421CBF5A724FF0010889E72946284607
:102AC00006F0FEFA09B0BDE8F08FD1720122019242
:102AD000E7E700BF6405002010B5421E0020013961
:102AE000C9B2FF2900D110BD12F8013F002BF6D06A
:102AF0005C1E01302340C0B2F8E7F0B5427F0468A5
:102B0000064613460020FF2A01D10020F0BD02EB4B
:102B1000820504EBC5078A42D7F808C014F835507F
:102B2000604402D013462A46EDE7934200D1757700
:102B30001BB203EB830304F833503B78FF2BE5D043
:102B400003EB830304EBC304A3686344A360DDE7E2
:102B500030B5551A15F4000F8368446909D125F082
:102B60007F421A44A2420ED9121B002482604461A3
:102B700030BD8A1A22F07F42934201D99A1AF1E7B6
:102B80002244D41A0022A41A0022EFE703460022AE
:102B90001A709A6A596208460AB1D96A1047704792
:102BA0002DE9F047857F01230446C3771DB9437F94
:102BB000FF2B02D1C577BDE8F08705F0FBFD676903
:102BC000667FD4F80080C71B27F07F47FF2E06D012
:102BD00006EB860608EBC6018B689F4218D2A27AE4
:102BE000E37A934205D10133DBB2022B08BF002305
:102BF000E372E37A04EB83030122DD60656A00235C
:102C0000E377AC46234604210320BDE8F047604744
:102C1000FF1A1D448A784B7818F836609B1ADBB28D
:102C2000012BD3D1D1F80C90013A8A70B9F1000F81
:102C3000CCD048696369CA8B281A184420F07F40B9
:102C40000B69496AC847C1E72DE9F04FC27F93B0CD
:102C50008346002A40F0A883436904930121837AC4
:102C60008177C07A984200F08C800B44DBB2022B53
:102C700008BF00238BF80A300BEB83030191D3F8D4
:102C80000C80049B434423F07F43CBF814309BF823
:102C90001D300393DBF800300593DBF804300B9311
:102CA0009BF809300293002307934FF0FF0A029B21
:102CB000013BDBB2FF2B029366D19BF81D30039AD8
:102CC0009B1A18BF01230293019BCBB1DBF8009044
:102CD00000279BF81D50FF2D0BD02EB206EB860669
:102CE00009EBC604A368434540F23281A3EB080315
:102CF000A360DDE901230399A94218BF134602939B
:102D0000DBF800300893DBF8043010939BF80930AF
:102D10000193019B013BDBB2FF2B019340F06881E3
:102D20009BF81D30039A9342079B40F032834BB9C6
:102D3000DBF804309BF809400193013CE4B2FF2C1E
:102D400040F09C8200238BF81E30029B4BB19BF815
:102D50001D30FF2B40F0E18205F014FD08B9CBF8DF
:102D600018009BF81F30002B00F01E83DBF8244076
:102D70005B46012203210420A44613B0BDE8F04FB6
:102D800060470192904682E70B9B029A03EBC207D1
:102D90007B680693F978BE788E4288D0069B387897
:102DA00006EB460212019D18731CDBB2984208BF65
:102DB0000023BB70069B9A5C032AECD9697801EB6F
:102DC00081030A930A98059B03EBC004052A6378E4
:102DD000A078A3EB0003DBB20AD84BB1042A0CD1D4
:102DE0006A6852B9AA6842B9EA6832F07F4204D1EF
:102DF00001212846FFF7CAFECCE7012B40F09D8059
:102E00005846FFF77AFE2B78A060042B064640F068
:102E10008680DBF81430089305F0CCFC089B099001
:102E2000C31A23F07F4343449E4202469EBF626919
:102E3000921B9B18626896BF6361F31A0023002AF5
:102E400049D0A989002946D001F1FF3C1FFA8CFC2A
:102E5000A5F80CC09A42B4F81EE001D2F44502D3A2
:102E6000DFF8749231E0616A994E9A488E19864271
:102E700081BF01F1E87101F5D43101F5A5716162FD
:102E8000D4E908168CBF4FF001094FF00009761AFB
:102E900091440EF1FF3E6662A3EB0903A4F81EE025
:102EA000D8E7D4E908160E4489498A487118814246
:102EB0008EBF002101214E4411440EF1010E8CBF42
:102EC000666266620B44A4F81EE0B4F81EE0F445A6
:102ED000E7D8A4F81CC0AA881344A360EA886369F1
:102EE00013446361DDE908122046FFF731FEA26951
:102EF0002B8913446A89A36193428CBF9B1A0023D8
:102F0000A361AB7B03B1E370059B0A9A03F832A07F
:102F1000637895F801A001336370002169E7A37815
:102F200063706B789BF81C209A4201BFFF238BF8DB
:102F30001C300023CBF81830EFE704215B46DBF8A8
:102F4000244001220846A0470123BE700793AEE645
:102F5000DBF818209342A8EB03081F4429BFFF2386
:102F6000D31A8BF81C300023CBF81830A3691BB19F
:102F70008BF81C50CBF818300022A26019F83630BC
:102F80008BF81D30D4F804C0BCF1000F2CD0A08BFE
:102F9000DFF840E1D4E908130B444D495918714555
:102FA0009FBFA3F1E873A3F5D433A3F5A5736362C0
:102FB00092BF019B63620023634410F1FF301A4407
:102FC000E8D2049BA260DBF81410DA192046FFF760
:102FD000BFFDA38BE3830023E37009F836A0637879
:102FE00001336370AA4674E6A37863705546F9E727
:102FF000109B019A03EBC20304935B680A93049B42
:1030000093F80190BAF1FF0F40D00FFA8AF303EB67
:103010008303089AD04612F833A002EBC3040025BC
:10302000DBF800300B93FF232370A28BE38B9342DA
:1030300040F280809B1A9BB20C930FFA88F303EB4B
:103040008303DB001193C8E009EB49030A9A1B01D3
:10305000D51809F101025FFA82F9049A12784A45FB
:1030600008BF4FF000090A9AD35C032B0ED195F8E4
:103070000180089B08EB880403EBC4046278A37802
:103080009A4208D001212846FFF780FD049B9B78D7
:103090004B45D9D13DE6EB68DBF8141063602B6932
:1030A0002362AB8AA383AB69A361EB69E3602B6AFC
:1030B00023610026AB68A36066616A682046FFF75B
:1030C00047FD01236662E683E3704FF0FF0AA7E73E
:1030D0005A2B17FF592B177FB6562EFE6068002813
:1030E00000F0C780D4E90812B14B0A44B149D318A3
:1030F0008B429CBFA2F1E872A2F5D432A3688BBFC9
:103100006262A2F5A57200226262034498BF0122A6
:103110001344E28BA3600132E283626993424FF071
:10312000000189BF9B1AD31AA36061619CBF6361D0
:10313000A16052E000237FE7B669091A46B9059FEE
:10314000B84200D23E1A0993059612F83E3053E079
:103150000693F8E730B200EB800002EBC0070E9751
:10316000BF680F97774509D20E9FBF69002F54D1D2
:103170000F9EAEEB060E12F830604CE0FF264CE0DE
:10318000069B98456AD0069BFF2BA7D01E4633B2FC
:1031900003EB83030593059A0B9B03EBC207FB8BA1
:1031A000BA8B934288BF9B1A7A688CBF9BB200236C
:1031B000002A93D00C9A934290D8FA78E3789A42F6
:1031C0008CD231465846FFF798FCBB787B70059A45
:1031D0000B9BB86003F832A0B246119BDBF80020CD
:1031E000DBF81800059002EB030CFF209BF81D3064
:1031F000DCF8081009930690FF2B06D003EB830E32
:1032000002EBCE06B068814296D8DCF818000D902B
:1032100001EB000E1E46FF2E9CD10D9828B105989B
:103220008142ADD3FF2E40F0BB800998CCF8081046
:10323000834218BFBDF924008CF8003016BF00EBA4
:1032400080008BF81D8002F83080FF2B06D003EB46
:10325000830302EBC3039A68511A9960A378013380
:1032600063700021002D3FF4CDAE2846FFF78EFCA1
:10327000C8E60121F6E70123029359E5019B03EB20
:10328000C4056E686B78EA789A423FF456AD03EB5A
:1032900043031A01B318B25C012A24D0022A29D1AF
:1032A000D3E9019099F80020D3F80CE0DBF800C0D6
:1032B000DBF81410FF2A02D00768B94223D09BF82C
:1032C0001D2001600021FF2A09D002EB82080CEBCF
:1032D000C80ADAF808000144DAF81800D0B189F811
:1032E0000020CEF8001000225A629A6A12B1D96A00
:1032F000002090476B782A780133DBB29A4208BFEE
:1033000000236B70BEE702EB8202DEF800101CF8AF
:103310003220D8E71CF83820D5E7039BFF2B07D1D4
:1033200005F048FA044605F01FFA08B9CBF8144036
:103330009BF81D30DBF8002003EB830302EBC30393
:103340000A269D6805F036FADBF81440031B23F0CB
:103350007F430333AB422CBFE418641924F07F444D
:103360000746DBF828302046984705F023FAC01BB3
:1033700020F07F40E41B033024F07F44A0427FF61E
:10338000F0AC013EDED1404080F311884FF00400E4
:1033900002DF002B3FF46FAF00238BF81E30D6E422
:1033A000B0457FF4F4AE59E713B0BDE8F08F00BF2D
:1033B0005A2B17FF592B177FF0B51C4E059F9DF810
:1033C0001840DDF81CC02C25454306EB050E725154
:1033D0008EF808108EF80930CEF80470013BDBB28D
:1033E000FF2B13D104BB2C2358433318089A1A62BD
:1033F000099A5A6218300A9A9A6232184FF6FF7187
:103400003450918020465C615C81F0BD1AB207EBBC
:10341000C201C1F804C017F8322002EB4201A41A1D
:103420000CEB011CE4B2D9E70120EEE724060020F2
:10343000074A2C2100FB012310B45C6A2CB1A4467E
:1034400001220321022010BC604710BC704700BF5E
:10345000240600202DE9F041224C2C2700FB0748D0
:103460000DB2D8F8040000EBC50C10F835009CF83C
:103470000340661CF6B2B04298BF00269CF80100DB
:10348000B0422DD0DCF8040004EB440425014419BB
:103490004FF0030E00F805E06360069BA360079BF6
:1034A000E360089B23610A9BA361BDF82430A382DB
:1034B0000B9BE3610C9B2362022363620D9BA3625F
:1034C0000E9B6270E3628CF80360D8E90835084609
:1034D0009847434600220421A847606ABDE8F0816E
:1034E0000120FBE7240600202DE9F843224C2C277D
:1034F00000FB07490DB2D9F8040000EBC50C10F829
:1035000035009CF80340661CF6B2B04298BF002616
:103510009CF80100B0422DD0DCF8040004EB440418
:10352000250144194FF0040800F80580A380BDF878
:103530002030E380BDF824302381BDF8283063813A
:10354000BDF82C30A3819DF83030A3730223636251
:103550000D9BA3620E9B6270E3628CF80360D9E955
:103560000835084698474B4600224146A847606AFE
:10357000BDE8F8830120FBE7240600202DE9F04197
:103580001A4C2C2600FB06480FB2D8F8040000EBBA
:10359000C70C10F837009CF80340651CEDB2A84238
:1035A00098BF00259CF80100A8421CD0DCF804005C
:1035B00004EB4404240107194FF0050E00F804E061
:1035C0007A700222C7E90923069BFB628CF803503C
:1035D000D8E9083408469847434600220421A0470A
:1035E000786ABDE8F0810120FBE700BF24060020D7
:1035F0002DE9F0411C4C2C2700FB07480DB2D8F8F0
:10360000040000EBC50C10F835009CF80340661C64
:10361000F6B2B04298BF00269CF80100B04221D01B
:10362000DCF804E004EB440425010EEB0504022061
:103630000EF80500C4E90123069BE360079BA36223
:10364000FF25089B65706062E3628CF80360D8E92F
:10365000083508469847434600220421A847606A77
:10366000BDE8F0810120FBE7240600202DE9F041B0
:103670001A4C2C2600FB06480FB2D8F8040000EBC9
:10368000C70C10F837009CF80340651CEDB2A84247
:1036900098BF00259CF80100A8421CD0DCF804006B
:1036A00004EB4404240107194FF0010E00F804E074
:1036B000FF2078700220C7E90902FB628CF80350F2
:1036C000D8E9083408469847434600220421A04719
:1036D000786ABDE8F0810120FBE700BF24060020E6
:1036E0002DE9F041084C2C2505FB0043D3E90837B0
:1036F00006460846984706FB0543BC4600220421BF
:10370000BDE8F041604700BF2406002005F052B834
:10371000401A20F07F40704708B50346012B084649
:103720000ED833B119B106220649FCF758FF0548F7
:1037300007E019B106220449FCF751FF024800E0F6
:10374000002008BD820600207C06002070B50646D9
:103750000D4604F0A3F9044610B10C24204670BDB8
:1037600004F0B0F910F0060FF7D1062229461EB179
:103770000248FCF734FFF1E70148FAE7820600202F
:103780007C060020002303700B70704773B50C4655
:103790004618351B8CB1FDF743FE032C019007D969
:1037A00004220DEB02012846FCF719FF043CF0E768
:1037B000224601A92846FCF712FF002002B070BD86
:1037C00008B50248FEF788FF002008BD9CAA00004B
:1037D000838910B504465BB1037D4BB900F07AF9DB
:1037E00008B1FEF733FF204605F07CFD002010BD38
:1037F0006FF01500FBE7000073B51C4D00264FF07D
:10380000FF31284605F0B9FF044618B300F032FD39
:103810000228019421D801280EBF00214FF0FF316A
:103820000120FEF76DFF044618B10146019800F033
:1038300039FC019B0021D88804F00AFA02A850F84C
:10384000043D1E6004F0A4F924B1A389204653B1BD
:10385000FEF74CFE06F032F9D1E7404080F31188C4
:103860004FF0040002DF05F03DFDF3E7EC300020EF
:1038700037B50C4C0C4D0DF1020101A804F050F9C4
:103880000028F8D1019B33B104F096FB019928463A
:1038900005F04FFFEFE74FF0FF31204606F0E4F967
:1038A000E9E700BFD4300020EC30002010B5144808
:1038B00086B004F025FC0446F8B900F0FBFC6FF07C
:1038C0000903CDE902434FF4E0720E4B0E490F4855
:1038D000CDE90444CDE9004406F07EFB6FF0070318
:1038E000CDE90243CDE90444CDE90044084B094940
:1038F00009484FF4806206F06FFB204606B010BD09
:10390000D430002071380000B8160020C813002001
:10391000F93700007818002060130020C0F3072357
:103920000870000C8870000A4B70C870704738B57A
:1039300008300D460221144605F006FD057044705E
:1039400038BD000038B504464FF0FF300D46FEF795
:10395000E7FEEA1C2060D2B20E21FFF7E8FF2068E4
:103960000321083005F0F0FC01230370054B1B8890
:10397000A0F80130206829460830BDE8384005F03D
:10398000E3BC00BF8806002070B50446154601322E
:103990000E460834D2B23E21FFF7C9FF012120466E
:1039A00005F0D2FC067029462046BDE8704005F0BF
:1039B000CBBC00002DE9784804461846154B164646
:1039C000D3E900234FF0000B03F0005C5BEA0C032B
:1039D0000D461DD0104BD3E900234FF0000C02F030
:1039E000080B5BEA0C0313D00B220421FFF7CCFF7A
:1039F00008220470A0F80160033024B9291DBDE835
:103A00007848FCF7ECBD0021BDE87848FCF714BE0F
:103A1000BDE87888D82E0020E02E002070B503780D
:103A20008AB004460E4607AD032B20D8DFE803F02A
:103A300002191B1D11492846FCF7AAFD6278049261
:103A4000A2780392E278029222790192627900923E
:103A5000A37905950A4A1B213046FDF709FC0AB0F7
:103A600070BD0849E7E70849E5E70849E3E7084A80
:103A70000A212846FDF7FCFBE0E700BFB7AA0000DB
:103A8000E0AA0000BEAA0000C5AA0000CFAA00005C
:103A9000D9AA000010B583789A068AB013D0C378EB
:103AA000DB0710D501460AAC11F8043BC3F38013C1
:103AB00004F8243D06220DF10500FCF790FD03A952
:103AC0002046FFF7ABFF0AB010BD034600685968F7
:103AD00070470000F0B5818999B00025022904469D
:103AE0000D9502D8002019B0F0BD8368C54E1A7834
:103AF00058789B7842EA00228B423280F2D8032128
:103B000004F1080005F02FFC3388C3F309029B0A77
:103B1000042B63D007D8032B24D001210DA8FFF775
:103B200011FF0123CCE1082B00F0D9803F2BF4D109
:103B3000013A092AF1D801A353F822F0C53E00004A
:103B4000F33E00001B3F00001B3B00001B3B00003E
:103B50005F3F00001B3B0000313F0000693F000059
:103B6000D53F0000032A14D008D8012AD5D1A06877
:103B7000FFF7ABFFA44BC3E9000103E02D2A17D0E8
:103B8000632ACAD101210DA8FFF7DCFE05700D984C
:103B9000A9E79D4B4FF0FF3041F6FF71C3E90001EB
:103BA0009A4B1F200021C3E9000103F021FFE9E740
:103BB000A36804210DA81D889F78FFF7C3FEAEB24D
:103BC0000446C21C3946304603F0A0FF002814BF4B
:103BD000022300232370A4F80150D8E7013A082AF1
:103BE0009BD801A353F822F00D3C0000373C0000A5
:103BF000AB3C00001B3B00001B3B00001B3B0000DC
:103C00001B3B00001B3B0000C73C000009210DA826
:103C1000FFF798FE002303708370C3706FF00E03EC
:103C200043710523092283714FF0FF334270027103
:103C3000C3710372ABE741210DA8FFF783FE00219A
:103C40000446402200F8011BFCF7F6FCE378217FD4
:103C5000A27E63F07F03E370A37963F03F03A37157
:103C6000E37A43F00403E372E37B43F02803E37356
:103C7000237C43F002032374E37D43F00403E375E4
:103C8000E37E61F03C0163F03C032177E376617FE2
:103C900094F8273041F0080162F0080263F07F03D6
:103CA0006177A27684F8273071E709210DA8FFF724
:103CB00049FE00210446082200F8011BFCF7BCFC69
:103CC0006023637163E707210DA8FFF73BFE014600
:103CD000002301F8013B1846FFF71EFD57E70A2AAB
:103CE00000F0E18027D8052A00F0818012D8022A4E
:103CF0005FD0032A69D0012A7FF40FAFA068FFF7D5
:103D0000E4FE424BC3E9000101210DA8FFF71AFEB2
:103D10000023D5E0072A00F05581C0F0A680082ACC
:103D200000F0BB80092A7FF4F8AEA368591C18780C
:103D300004F0B8FBE8E7122A77D010D8102A67D031
:103D40006FD80F2A7FF4E9AE02210DA8FFF7FAFD24
:103D500000230370044604F057FC607017E7182A2C
:103D600067D015D8172A7FF4D8AEA06800230EAA12
:103D700000F1100104F052FD11210DA8FFF7E2FD42
:103D8000002300F8013B10220EA9FCF728FCFEE6F8
:103D90001C2A59D04B2A7FF4C0AE03210DA8FFF78F
:103DA000D1FD0146002301F8023B0130FFF7EAFC98
:103DB000EDE604210DA8FFF7C5FD002303701B22CB
:103DC000837002234270C370E1E609210DA8FFF75A
:103DD000B9FD00210446082200F8011BFCF72CFC69
:103DE0000C2363704023A3700123E370CFE6A16826
:103DF0000120FFF7ABFC044601210DA8FFF7A2FD4F
:103E00000470C4E688060020D82E0020E02E002092
:103E100001210DA8FFF796FD044604F0F7FB207082
:103E2000B5E6A06804F008FCE5E7A06804F03CFCF7
:103E3000E1E709210DA8FFF785FD002300F8013B0C
:103E40000821FFF7A3FCA2E609210DA8FFF77AFDE0
:103E500001460022044601F8012B0320FFF75EFD16
:103E6000611D1046FFF75AFD91E6A0680021037915
:103E70000288CDE90911CDE90711CDE90511847B4F
:103E80000494447B0394C41D029484790194407982
:103E90000090084604F0BCF9ADE7A368591C1878F7
:103EA00004F0A8FA30E7A368187804F041FB012178
:103EB00004460DA8FFF746FD002C14BF0C23002379
:103EC000037064E60D210DA8FFF73CFD022242704D
:103ED000C270012282710B220023C271632203701F
:103EE000837003714371037242728372C3720373EE
:103EF0004DE641210DA8FFF725FD00210446402293
:103F000000F8011BFCF798FB637863F058036370BB
:103F1000A37843F00303A37039E609210DA8FFF746
:103F200011FD002100F8011B0822FCF785FB2EE69D
:103F30005B4B0EAA03F1280615461868596814460B
:103F400003C40833B3422246F7D129210DA8FFF755
:103F5000F9FC002300F8013B2822294615E7A16857
:103F60000020FFF7F3FBCFE64FF08053D3F8A420F7
:103F7000013206D1D3F8A8304FF6FF729BB29342BC
:103F800020D04FF08055D5F8A030DB071AD5182186
:103F90000DA8FFF7D7FC00260123044643700670E6
:103FA000D5F8A400A11CFFF7B9FCD5F8A830A3717F
:103FB000C3F3072363F03F03E3711022314604F19A
:103FC0000800B2E702210DA8FFF7BCFC0023037034
:103FD0004370DCE521210DA8FFF7B4FC0346002265
:103FE00003F8012B4FF080520446D2F890100131B3
:103FF0004BD0D2F89410013147D0D2F8981001314B
:1040000043D0D2F89C1001313FD0D2F8900019462D
:10401000FFF784FC611DD2F89400FFF77FFC04F1E8
:104020000901D2F89800FFF779FC04F10D01D2F8EC
:104030009C00FFF773FC4FF0805204F11103D2F89B
:104040008010013127D0D2F88410013123D0D2F86A
:10405000881001311FD0D2F88C1001311BD0D2F85A
:1040600080001946FFF75AFC04F11501D2F88400CC
:10407000FFF754FC04F11901D2F88800FFF74EFC59
:1040800004F11D01D2F88C00ECE610220021184644
:10409000FCF7D2FACFE710220021184645E700BF0F
:1040A00003AB00002DE9F0410379012B8AB00446EF
:1040B0000D4600F1080800F09B80023B032B00F244
:1040C000CD80DFE803F00253535F674B03934FF655
:1040D0000473ADF8103002238DF81230634BD3E92E
:1040E0000023002003F0005150EA01033BD0604B55
:1040F000D3E90023002102F0020050EA010332D08C
:10410000227A637A02F00F02012A1ABF9E1FF6B2CA
:104110000026234406F10B02D2B2022128469F7AE0
:10412000FFF732FC01230370237A0AAA03F00F037E
:104130001344054613F81C3C4370237AC3F38013E1
:104140008370062204F10A010330FCF748FA0A35AD
:1041500005F8016C7F427FB2324608F1080128461B
:10416000FCF73DFAAF550AB0BDE8F081037A03F0E1
:104170000F03072BF7D1437A002BF4D04046FFF70B
:1041800089FCF0E7394BD3E9002300F10A0603F07C
:104190000051002050EA010308D0354BD3E9002339
:1041A000002102F4802050EA010310D1237A0AACE6
:1041B000C3F3801304F8243D314606220DF10500B7
:1041C000FCF70DFA03A92046FFF728FCCBE70822ED
:1041D00013212846FFF7D8FB00230370237AC3F38B
:1041E00080134370062231460230FCF7F8F9BAE733
:1041F000C17AC68809290BD00C2910D007292DD1E6
:10420000037B0E2BAFD12B46324600211A2003E050
:104210002B46324641460020FFF7CCFBA3E7134B69
:10422000D3E900234FF0000802F4006757EA0803BF
:1042300099D008222846FFF77AFB0821681805F074
:1042400083F800230370A0F80160237BC370B4F8E7
:104250000D308380B4F80F30C38084E7404080F392
:1042600011884FF0040002DF000103FFD82E002068
:10427000E02E00200379012B0FD00A2B15D8012046
:1042800000FA03F313F4B06F12D113F03C0F10D106
:1042900083F0400343F380107047037A03F0030375
:1042A000032B0CBF0220032070474FF0FF307047F4
:1042B00002207047064B4FF0FF3041F6FF71C3E913
:1042C0000001044B1F200021C3E90001704700BF1B
:1042D000D82E0020E02E002020BF40BF20BF704716
:1042E000F0B50D4B89B005460E4601AA03F118073B
:1042F00018685968144603C40833BB422246F7D1F4
:104300001B88238008AB1D4415F81C0C831B5842E6
:10431000584109B0F0BD00BF13A500000860704708
:1043200018B90B6843F000430B60704718B90B686D
:1043300023F000430B60704770B5031D451E002439
:104340009D4201D1204670BD15F8016F0022A018D2
:10435000082AC0B201D10446F2E716F0010F03D0DB
:104360000029F0D00139C9B276080132EFE7000028
:1043700010B50C4A92F83A3192F839118B4238BF95
:1043800092F8384192F8391138BF1B195B1ADBB229
:1043900098429BBF92F83911D2F83431002053F87B
:1043A000210010BD8C06002030B590F85C3090F8EC
:1043B0005D10994228D190F91D30002B26DBC48C6A
:1043C000828CA0F86440C48DA0F8622054437D2202
:1043D00062434FF47A7492FBF4F2A0F8662090F8EE
:1043E0006020012565F30102D2B2002342F00402ED
:1043F000013980F87050C36680F8602080F85E5004
:1044000080F85D10184630BD0120FCE70220FAE775
:104410002DE9F84F0C78944281460F4690463DD0E6
:104420001F4ED6F8683133F83430038000254FF042
:10443000020B06F5AE7A22B2D6F86801B9F800C0D0
:1044400000EBC20130F83220944520D148680128A1
:1044500020F003030AD9F3B1021D1CD04279D2B176
:10446000027902F00302013A012A14D8012215440C
:104470004A60EDB213B15146FEF7B1F9013496F836
:104480006C21E4B2A24208BF00244445D3D13C7061
:104490002846BDE8F88FC1F804B0EBE70025F7E740
:1044A0008C06002010B5094B93F810218242044677
:1044B0000AD902464FF48271D3F80801FEF7A4F935
:1044C00010B1038CA34200D0002010BD8C06002048
:1044D0002DE9F04186B00223052805460F460293D8
:1044E0000ED0062800F08D8040F28580073880B21B
:1044F000FFF7D8FF002800F0D680D0E900680FE071
:104500006A4BD3E9066802AB00930A46684B032165
:104510000020FFF733F8022866D0029B002B67D1FA
:10452000624CA37C03F0FF00002B64D106AB022297
:10453000A57443F8102D032100932A465C4BFFF726
:104540001DF8022861D0029B002B45D1237CAB4291
:1045500002D0637CAB423BD106AB022243F80C2D68
:10456000002200930321524B1046FFF707F8022860
:1045700007D1012211460320FEF7A6F9039B022B67
:1045800039D0039800285CD102230493237C002BAC
:1045900031D004AB00930122454B20740321FEF778
:1045A000EDFF022807D1012211460320FEF78CF906
:1045B000049B022B1FD0049A002A34D126F0004617
:1045C000B0453CD93B4B11460320FEF7A5F990B905
:1045D000A37C0BB9012302930023A374029806B0B5
:1045E000BDE8F081FFF778FE029B022BFAD094E73A
:1045F000029B012B94D0404080F311884FF00400BF
:1046000002DF2A4BD3E934688AE7637CAB4204D1EA
:10461000012211460320FEF757F9029B022B92D18B
:10462000FFF75AFEF9E7049B012BE4D10022114663
:10463000204B0320FEF770F902460028DBD11E4B09
:10464000C1E7039D012DD6D1FF2F19D006AB022261
:1046500043F8042D032100933A46154B0020FEF742
:104660008DFF022807D12A4629460320FEF72CF9A0
:10467000059B022BBFD0059B13B1059B012BBAD123
:10468000E37C002BA4D00D4B04229A60002211463B
:104690000320FEF741F90028ADD1E37C002B97D031
:1046A000FFF71AFEF9E7012099E700BF8C0600200A
:1046B0001D430000282F0020C82F0020582F002065
:1046C0002DE9F04F8BB00024FF25DFF814918DF811
:1046D0001F50804693461F4601F1040A1C6008944F
:1046E00026460223099309AB02933B4B019308AB87
:1046F00000930DF11F025B4641460020FEF778FF54
:1047000002280BD0099B6BB1404080F311884FF019
:10471000040002DF41460020FEF7E2FF099B022B66
:10472000F8D0EFE79DF81F20FF2A4DD0062AD8D9F0
:1047300099F8103107339A42D3DA073A92B24FF41C
:104740008271D9F80801FEF75FF80028C9D090F906
:104750001D30002BC5DBD0E9003C002B089A12DA93
:10476000816823F000438C452CBF62445218D21A52
:10477000C168FF2D01F104010B4408D19DF81F50C1
:104780001C461646ADE7634538BF6346F0E7314641
:10479000104605930492FEF7BBFF04EB0A01884222
:1047A000DDE90423EAD90D483444A4FB00010723C2
:1047B00003FB041106A3D3E90023FBF755FD80306A
:1047C00038600BB0BDE8F08FFF2DECD1F9E700BFEA
:1047D00000CA9A3B000000001D4300008D49FD1AED
:1047E0008C06002070B504780A78C4F38013B3EB0C
:1047F000D21F19D104F00F04012C00F1020501F1C0
:10480000080608D0062231462846FBF7D8FEB0FA43
:1048100080F0400970BD062231462846FBF7CFFEE6
:104820000028EFD12046F5E70020F3E70B4A92F885
:10483000783192F8791199420ED192F8783102EBE1
:104840004303A3F8720192F878310133DBB2032BF2
:1048500008BF002382F87831704700BF8C06002023
:10486000404080F311884FF0040002DF08B508B122
:10487000FFF7F6FF08BD0000012808B5094B07D176
:104880009A7C052A02D100229A7408BDFFF7E8FF3E
:104890001B7C052BF9D1404080F311884FF00400B8
:1048A00002DF00BF8C060020012808B5094B07D1A4
:1048B0009A7C062A02D100229A7408BDFFF7D0FF25
:1048C0001B7C062BF9D1404080F311884FF0040087
:1048D00002DF00BF8C06002008B528B1034B9B7C8B
:1048E000052B01D0FFF7BCFF08BD00BF8C060020E0
:1048F00008B530B1034B9B7CC9B2994201D0FFF798
:10490000AFFF08BD8C060020044B1B7D23B10121A5
:1049100000220846FDF7D8BF704700BF8C06002074
:10492000062810B50C460AD9094BC21F92B24FF4A3
:104930008271D3F80801FDF767FF206010BD0528DC
:1049400004D00628034818BF0020F7E70248F5E71F
:104950008C0600205C070020A406002008B50A4B46
:1049600000221A70094BA3F11001012818BF0B4651
:104970001146FDF7D1FF28B1404080F311884FF078
:10498000040002DF08BD00BF94080020A82F00200B
:10499000002208B51146044B1046FDF7BDFF08B1D3
:1049A000FFF75EFF08BD00BFF82E0020002208B50B
:1049B0001146044B1046FDF7AFFF08B1FFF750FF5B
:1049C00008BD00BF782F002008B50A4A137838B117
:1049D000591C117063B90120BDE8084003F088BB81
:1049E0000BB9FFF73DFF013BDBB21370002BF3D097
:1049F00008BD00BF400800200020FFF7E5BF000011
:104A0000C0B208B5031F012B01D9FFF729FF084ADF
:104A1000137D13B1043B012B06D804F0C1F828B96B
:104A2000BDE8084004F08AB81075F9E708BD00BF7A
:104A30008C06002038B505460C460021084603F0D8
:104A4000E3FF95F8A830DB064FF001020DD51F21DA
:104A5000082004F01FF82246002105F1A90004F007
:104A600051FABDE8384004F043B808201B2104F097
:104A700011F82046F5E7000038B5104A92F8703179
:104A800092F86C410133DBB29C4208BF002392F8DC
:104A90006F419C4201D1FFF7E3FE92F87051D2F8CA
:104AA000684124F8350092F8700104EBC00461609D
:104AB00082F87031BDE8384003F01CBB8C06002042
:104AC0002DE9F047254D0646A846002795F86D319B
:104AD00095F86E219A4236D095F86D91D5F864A17B
:104AE000D5F808013AF839200AEBC9034FF482716E
:104AF0005C682760FDF788FE03463AF839001A8C97
:104B0000824222D1D3F8F82042B9D3F8EC20C3F87E
:104B1000F8401AB9C3F8EC40C3F8FC20D3F8FC20E5
:104B200002B11460C3F8FC4098F86D3198F86C211C
:104B30000133DBB2013E9A4208BF002316F0FF06A4
:104B400088F86D31C2D1BDE8F087237967F301039E
:104B500023712146FFF790FFE6E700BF8C06002097
:104B600073B50122044611460020FDF7ADFE94F80E
:104B70002020002142F20E33073200930846374BC3
:104B8000D2B2FEF7FBFC30F0020105D0404080F3CA
:104B900011884FF0040002DF314B1A7D052A1D46B3
:104BA0001BD1228C187C0732904216D1197442F224
:104BB0001F3300930122294B0846FEF7DFFC30F03B
:104BC0000202E3D142F2263300931146234B1046F2
:104BD000FEF7D4FC30F00203D8D1D4E93B1399425C
:104BE00003D0D4F8F830994201D11E4E10E00B7971
:104BF0006FF301030B710B68C4F8EC30208CFFF7E6
:104C00003BFFEAE703683146C4E93B33FDF7E7FDC4
:104C1000D4F8EC0018B1D4F8F8309842F2D100235F
:104C2000C4E93C33D4F8EC1051B94FF6FF73238438
:104C3000D5F88031A34208BFC5F8801102B070BD1D
:104C40000B796FF301030B710B68C4F8EC30C4F8F7
:104C5000F830208CFFF710FFE4E700BF6D4800003C
:104C60008C060020E007002038B505460C460021E0
:104C7000084603F0C9FE95F8A8309B064FF00102E4
:104C80000CD51F21082003F005FF214605F1CA00BD
:104C900004F074F9BDE8384003F030BF08201B2150
:104CA00003F0F8FE2046F5E7262810B504460BD0A1
:104CB00027280BD025280BD1022003F0BBFE20466D
:104CC000BDE8104003F0BCBE1A20F6E75020F4E720
:104CD0000A2802D802304000EFE7272801D8033025
:104CE000F9E7FFF7BDFD000038B52A4C94F878309D
:104CF00094F879209A4206D00133DBB2022B08BF28
:104D0000002384F8783094F8C83094F8C9209A4287
:104D100006D00133DBB2022B08BF002384F8C83071
:104D200094F878202A23272515FB0235601903F013
:104D3000E5FE635D03F00F03022B23D0072B21D088
:104D400002239620237503F0E3FF002003F050FFB9
:104D500094F82830C3F30202D3B21946002011F0B0
:104D6000010F00F1010512D0013B134094F82820F7
:104D7000C0B263F3020284F828202530BDE8384031
:104D8000FFF792BF0323237503F048FFE0E74908CC
:104D90002846E4E78C06002073B5164602AA1C4696
:104DA000054642F8046D27310120FFF789FC23688E
:104DB000FBB10198831B1B0201D5FFF751FD314662
:104DC000FEF7A6FC024610480723A2FB000103FBE6
:104DD00002110BA3D3E90023FBF746FA236818441A
:104DE0000028206005DB40F2E240684323688342EC
:104DF00001D802B070BD1B1A2360F7E7AFF3008043
:104E000000CA9A3B000000008D49FD1A13B500F15D
:104E10006C030446826FC168808CFFF7BDFF02A956
:104E2000E36E606F40F2E242B3FBF2F3022221F83C
:104E3000023DFBF7D4FB02B010BD00001FB53E4C95
:104E400020B1A37C052B75D0FFF70AFD237C052B31
:104E500002D0637C052B65D104AB022243F8082DF8
:104E6000002200930121354B1046FEF787FB0228F4
:104E70000DD00298C0B10298012819D1E37C002B13
:104E800050D02F4B04229A600022114646E00122A6
:104E900011461046FDF718FD029B022BE9D10121B6
:104EA0000020FEF71DFCF7E702230393237C2BB9B8
:104EB000404080F311884FF0040002DF03AB012271
:104EC0002074114600931D4BFEF758FB02280FD0AB
:104ED000039AD2B1039C012CEAD100221146194B4E
:104EE0002046FDF719FD02460028E1D1164B13E0DC
:104EF000012211461046FDF7E7FC039B022BE7D188
:104F000001210020FEF7ECFBF7E7A369E16923F03C
:104F100000438B42EAD20B4B11460120FDF7FCFC0B
:104F20000028C5D10022094B11460120FDF7F4FCF1
:104F30000028BDD104B010BD8C0600201D43000028
:104F4000482F0020182F0020B82F0020E82E002026
:104F500070B5164C037894F8E120DB09B3EBD21F4F
:104F600005460E4607D094F8E100C0F3011010F09A
:104F700002000BD170BD00F10801062204F1E2002D
:104F8000FBF71DFB0028EED10120F3E795F9003077
:104F9000002B09DA6B7B03F0C003402B04D1002EF9
:104FA000F2D001203070E5E70020E3E78C06002016
:104FB00010B5164A92F8393192F83A11994201D156
:104FC000FFF74EFC92F83911D2F8343153F8211022
:104FD00092F8703108680B7092F8393192F83841C4
:104FE0000133DBB29C4208BF002382F8393102F55D
:104FF000A472FDF723FC28B9404080F311884FF0DC
:10500000040002DFBDE8104003F074B88C060020F5
:1050100010B50120FFF7ACF9044608B9FFF720FCF2
:105020004FF6FF73C38006230371102200210B305B
:10503000FBF702FB3C23E372BDE81040FFF7B8BF6B
:1050400003460A4600F19C01D0F89C0010B508B94F
:10505000FFF706FC1C8CA3F8A24083F8A4200724C9
:105060000A4A83F8A04092F8704183F89C4002F508
:10507000A472FDF7E3FB28B9404080F311884FF09C
:10508000040002DFBDE8104003F034B88C060020B5
:10509000404080F311884FF0040002DF70B50646EF
:1050A0000320FFF765F9044620B34FF6FF73C38072
:1050B000114B93F8E1305A0718D0C3F30203DAB268
:1050C000012A03D0042A02D0FFF7E2FF0323237151
:1050D00004F1080566B103F0B9FD00F07F00637AC2
:1050E0001D44A870FFF764FF002070BD0223EEE7A7
:1050F0007F20F4E70120F8E78C06002030B5046833
:10510000002C89B019DAD0E9013524F000449D4221
:1051100034BFE41A641B0A4B0593A4B20023069023
:10512000CDE90333CDE9014318460094FEF7DCF9DD
:1051300030F0020301D0FFF793FB09B030BD00BF90
:105140002D43000037B502AD104B45F8043D044631
:1051500003F040FC002003F067FC0D4803F004FC62
:105160000121204603F050FC284603F07BFC62003E
:1051700002F0FE022521082003F08CFC054940F2D4
:105180005B6003F017FD03B030BD00BFD6BE898E53
:10519000B16000005555550008B5054B00229860D8
:1051A00011461046FDF7B8FB08B1FFF759FB08BDE3
:1051B000382F00202DE9F04F14681D688DB0002CA9
:1051C00081460B9190469B469DF85CA003DA169CA5
:1051D000AC4238BF2C46AC424E4F1BD941F28B53E8
:1051E000CDE907734C4B0021CDE90413631B0093F9
:1051F00006914B46CDE90211019101220846FEF7C6
:1052000029F930F002032BD0404080F311884FF091
:10521000040002DF1DD200231A4619461846FFF784
:10522000B7FB4FF4AD53CDE907733C4B00212C1B6A
:10523000CDE9041306914B46CDE90211CDE90041B9
:1052400001220846FEF706F930F00203DCD12C46B5
:105250000BE000231A4619461846FFF799FB002376
:105260001A4619461846FFF7A1FB2D4E0B9BF3601B
:1052700041F2B853CDE90773199B06930022189B9E
:105280000593CDE903224B46CDE901220094114656
:105290001046FEF7DFF830F00203B5D10520FFF726
:1052A0007BFFD6F87C31AB4223D0CBF80030D8F866
:1052B0000030002BBCBF23F00043C8F80030D6F804
:1052C0007C21D8F800108A4238BF0A4641F2E851E2
:1052D000A3B292B2CDE905710021CDE9012300927C
:1052E000CDE9031152460846FEF7FEF830F00203FE
:1052F0008AD1FF20FFF7E4FB0A4B01221146002070
:10530000C3F808A0FDF708FB00287FF47DAF0DB0BF
:10531000BDE8F08F6D48000091490000AD490000E4
:105320008C060020D82F00201FB50B4A137C03F0F9
:10533000FF040BB1FFF794FA052313740394074C91
:10534000CDE90134136A009302F11C031832FFF710
:1053500031FF04B010BD00BF8C060020DD550000F9
:1053600007B50520FFF718FF41F6AC0300210093B5
:105370000522064B0846FEF701F930F0020301D082
:10538000FFF76EFA03B05DF804FB00BF3D4E00006E
:105390002DE9F843214D95F83A4195F8383195F8C3
:1053A0004C910134E4B2A34208BF002405F5A07774
:1053B00005F59478B9F1000F03D095F839319C4286
:1053C00001D1BDE8F8833846FDF7F0F9064600281C
:1053D000F7D04046FDF7EAF928B930461049BDE854
:1053E000F843FDF7FCB9066095F83A21D5F8343159
:1053F00043F8220085F83A4195F838310134E4B297
:10540000A34208BF002495F84C3109F1FF39013B54
:1054100085F84C315FFA89F9CCE700BF8C06002093
:10542000CC07002010B52C4C94F81021002A37D05E
:1054300004F586734FF48271D4F80801FDF792F9F0
:10544000264B94F83221B4F83011D4F82401FDF73A
:1054500089F994F8381194F81021214BD4F83C01C3
:105460000A440821FDF77EF91E4BD4F850010222B0
:105470002421FDF777F994F86C21D4F858011A4BE0
:10548000B4F86011013A92B2FDF76CF91448FDF7D7
:105490008DF940B9404080F311884FF0040002DFDD
:1054A000C4F80C21CCE7114A111FFDF7C4F994F898
:1054B000293043F0380384F829304FF6FF73A4F8FD
:1054C0001A31A4F81C3142F21F53A4F81E31BDE872
:1054D0001040FFF75DBF00BF8C060020B40700201E
:1054E000CC070020E0070020E8070020D4070020B8
:1054F000024B1868436800211B6818478C0600207F
:10550000024B1868436800215B6818478C0600202E
:10551000F0B4484003274FEA102C082600240CF072
:105520000105013E45EA440516F0FF06ECB24FEADC
:105530005C0CF4D125022DB2C0B24FF0080C3446F9
:1055400000F0010646EA44040CF1FF3616F0FF0CA9
:10555000E4B24FEA5000F3D12C4304EB0414013FB2
:105560000C4417F0FF07A0B2D5D125244140B1FB70
:10557000F4F004FB1010C0B2C40800F00705145D7D
:105580002C41E40705D45943090C1046F0BCFEF742
:10559000D3BEF0BC7047000070B514460E460546F9
:1055A000FEF7B4F82146FEF7B3F8C41C092C11D954
:1055B000094B1B7813B10020FFF7D0F932460021C8
:1055C0002846FFF79BFDAB681C44262C00D8AC6036
:1055D000012000E0002070BD94080020294BDA7CF7
:1055E00070B502F0FF0105461C462AB1404080F329
:1055F00011884FF0040002DF1B7CDBB2052BF5D1D4
:10560000A06094F82900012600F00700E6742174D8
:105610006374FFF797FD94F8293094F82820C3F3BA
:10562000C20363F3020284F82820FFF75DFB94F8BD
:10563000293013F0C00F07D0304602F0D9FF821C8A
:105640004178007803F01AFBE26805F109010120B6
:1056500003F06AFB03F038FC2A4605210A48FFF7ED
:105660009BFF034628B104232375BDE8704003F077
:1056700065BA064A0146FDF7F9FF30F00203B5D1DD
:1056800070BD00BF8C060020A40600200949000060
:1056900010B5044603F09EF9002003F0C5F90A484E
:1056A00003F062F904F1100003F0DCF9637DA17DE1
:1056B0001B0243EA0143217D40F25B601943BDE8D0
:1056C000104003F077BA00BFB16000002DE9F84345
:1056D0001C46584BDA7C074602F0FF061D462AB1ED
:1056E000404080F311884FF0040002DF1A7C238CC5
:1056F000D2B207339A42F3D10323EB74A5F81861B1
:1057000001232B75238DC5F81441D2B26385A8609F
:10571000268520462E746A74FFF7BAFF962003F0A0
:10572000F7FA334632463146304603F06DFA95F8C3
:105730003921D5F8343153F8221020460831FFF7CB
:1057400079F9637F580604F117024AD5608CE18B22
:10575000013803F03F0380B2FFF7DAFEFFF7A4FA47
:10576000D4E91123134400226264226CA36493429F
:1057700088BFA264D4E91323002613442365EA6892
:10578000E66407F10901304603F0CEFA804603F0E3
:1057900067FB304603F086FB236DA26C78333146FD
:1057A000304603EB420903F0B6F9C8443146804461
:1057B000304603F0B2F9404403F034FB94F8201073
:1057C00007313A46C9B22046FFF7E6FE034640B32A
:1057D00004232B7503F0B2F90220BDE8F843FFF76C
:1057E0006FB9618DA67F01FB0666E17F25200E441F
:1057F00096FBF0F100FB1166F0B2C108E077515C56
:1058000006F0070641FA06F6F10703F03F03A5D4B8
:10581000B0FBF3F103FB1101C9B21046FEF78CFD9A
:105820009CE7054A0146FDF721FF30F002037FF4B3
:1058300057AFD1E78C0600200949000010B590F859
:10584000A840D0F8F02014F0800F18D1D0F8EC3038
:10585000ABB1240713D4D0F8F840A34204BF1C68AE
:10586000C0F8F84092B91A680A601960C0F8F010E0
:10587000C0F8F4100B680BB9C0F8FC1010BD2AB9C1
:10588000D0F8EC300B60C0F8EC10EFE7D0F8F43053
:105890001A680A601960EBE710B490F8A840240772
:1058A0000A460FD5D0F8F01031B9D0F8EC101160DD
:1058B000C0F8EC2010BC7047D0F8F43019681160C3
:1058C0001A60F7E710BCFFF7B9BF0000F8B5214F29
:1058D000054607F5AA700E46FCF768FF0446B0B30C
:1058E00033797179D7F8142143F07F4343F47E0371
:1058F00043F4435343F0100343EA0123B17943EAED
:105900000143D2F88C10C1F310010B40C2F88C3067
:1059100092F8383043F0200382F83830037943F0AE
:1059200003030371082209234371C371002110444A
:10593000FAF782FED5F88C3023721A0A1B0C28461F
:105940006272A3722146FFF7A7FF0020F8BD012075
:10595000FCE700BF8C0600202DE9F04F6F4D1C4680
:105960002B7C8FB0804689462BB1404080F3118854
:105970004FF0040002DF94F820300733DBB22B74C1
:1059800094F91D30002B09DAE36B616C02FB0333E1
:105990000B44216C63648B4288BF6164268D94F84C
:1059A0005C303244668C92B22285324496B294F8CE
:1059B0005D209A4271D00520FFF7EEFB94F85E302F
:1059C000013B032BD1D8DFE813F004002E02700254
:1059D000B902D5F880310BB9C5F8804194F8603030
:1059E00013F0030300F0A6804D48FCF7DFFE0546E8
:1059F000002852D094F8603003F00302012AB4D199
:105A00006FF3010384F86030E38C0279063333448A
:105A10009BB242F00302A4F8683002710C2242717A
:105A20000022C27194F87020027240F2E241E26EEC
:105A3000B2FBF1F2A0F80920B4F86220A0F80B2024
:105A4000B4F86420A0F80D20B4F86620A0F80F2068
:105A50002268A0F81130002AC4F878800ADAD4E964
:105A6000011322F000428B422CBF434408EB010398
:105A70009B1AA36705F109032A4A63672A4BC3E906
:105A80000242012211460020FCF746FF00287FF465
:105A90006CAF29462046FFF7D1FE94F8992094F880
:105AA00098309A421DD00520FFF776FB1C48FCF782
:105AB0007DFE0146A8B194F8983084F899300379B6
:105AC00043F00303037102234371C37194F89A30C6
:105AD00003722046FFF7B2FEE38D012B98BF01331E
